:020000040000FA
:100000000C9404010C942C010C942C010C942C01E4
:100010000C942C010C942C010C942C010C942C01AC
:100020000C942C010C942C010C942C010C942C019C
:100030000C942C010C942C010C942C010C942C018C
:100040000C9422080C942C010C9492080C946C08CB
:100050000C942C010C942C010C942C010C942C016C
:100060000C94C4080C942C0100000000240027000C
:100070002A0053747265616D696E672066696C74DD
:10008000657265642064697374616E636520696E6E
:10009000206D6D20616E6420636D2E00564C3533EB
:1000A0004C30582072656164792E004661696C6538
:1000B0006420746F2064657465637420616E6420CD
:1000C000696E697469616C697A6520564C35334C88
:1000D00030582E004932432064657669636520728A
:1000E0006573706F6E6465642E20496E6974696112
:1000F0006C697A696E672073656E736F722E2E2E2F
:1001000000436865636B2056494E2C20474E442CB3
:100110002041342F5344412C2041352F53434C2C44
:1001200020616E642044332D3E5853485554207747
:100130006972696E672E004E6F20493243207265E6
:1001400073706F6E736520617420307832392E00C1
:1001500050726F62696E6720564C35334C305820B0
:10016000617420307832392E2E2E005374617274EF
:10017000696E67204932432E2E2E005265736574D6
:1001800074696E6720564C35334C3058207669615F
:100190002058534855542E2E2E005374617274000B
:1001A0002054494D454F55540020636D2900206D62
:1001B0006D20280044697374616E63653A20000005
:1001C000000000250028002B00040404040404049B
:1001D00004020202020202030303030303010204F6
:1001E00008102040800102040810200102040810B9
:1001F00020000000080002010000030407000000C6
:10020000000000000000E30911241FBECFEFD8E07A
:10021000DEBFCDBF11E0A0E0B1E0E2E1F7E202C055
:1002200005900D92A433B107D9F722E0A4E3B1E021
:1002300001C01D92AA3BB207E1F711E0C4E0D1E092
:1002400004C02197FE010E948113C330D107C9F772
:100250000E942A0A0C9487130C94000091E090935A
:10026000020280930102109200021092FF01089591
:1002700090E0FC01EF50FE4F2491FC01E352FE4F51
:100280003491FC01E753FE4FE491EE23C9F02223A1
:1002900039F0233001F1A8F4213019F1223029F18D
:1002A000F0E0EE0FFF1FE154FE4FA591B4918FB720
:1002B000F894EC91611126C030953E233C938FBF9A
:1002C00008952730A9F02830C9F0243049F78091EB
:1002D00080008F7D03C0809180008F7780938000A5
:1002E000DFCF84B58F7784BDDBCF84B58F7DFBCF27
:1002F0008091B0008F778093B000D2CF8091B00012
:100300008F7DF9CF3E2BDACF3FB7F8948091AD01C6
:100310009091AE01A091AF01B091B00126B5A89B1C
:1003200005C02F3F19F00196A11DB11D3FBFBA2F87
:10033000A92F982F8827BC01CD01620F711D811D47
:10034000911D42E0660F771F881F991F4A95D1F7CC
:1003500008958F929F92AF92BF92CF92DF92EF92C9
:10036000FF924B015C010E9484016B017C010E94A1
:1003700084016C197D098E099F09683E73408105CF
:100380009105A8F321E0821A9108A108B10888EE2E
:10039000C80E83E0D81EE11CF11C81149104A10455
:1003A000B10429F7FF90EF90DF90CF90BF90AF900E
:1003B0009F908F9008952FB7F8946091A901709144
:1003C000AA018091AB019091AC012FBF08950895CF
:1003D0000895AF92BF92CF92DF92EF92FF920F9368
:1003E0001F93CF93DF936C017B018B01040F151FCB
:1003F000EB015E01AE18BF08C017D10759F0699133
:10040000D601ED91FC910190F081E02DC601099596
:10041000892B79F7C501DF91CF911F910F91FF9043
:10042000EF90DF90CF90BF90AF900895FC01538D77
:10043000448D252F30E0842F90E0821B930B5417BE
:1004400010F0CF96089501970895FC01918D828D4B
:10045000981761F0A28DAE0FBF2FB11D5D968C91E4
:10046000928D9F5F9F73928F90E008958FEF9FEF23
:100470000895FC01918D828D981731F0828DE80FDF
:10048000F11D858D90E008958FEF9FEF0895FC0199
:10049000918D228D892F90E0805C9F4F821B910966
:1004A0008F739927089583E092E00E94470221E02C
:1004B000892B09F420E0822F089580E090E0892BB9
:1004C00029F00E94530281110C9400000895FC0150
:1004D000A48DA80FB92FB11DA35ABF4F2C91848DA5
:1004E00090E001968F739927848FA689B7892C9302
:1004F000A089B1898C91837080648C93938D848D55
:10050000981306C00288F389E02D80818F7D808357
:100510000895EF92FF920F931F93CF93DF93EC0117
:1005200081E0888F9B8D8C8D98131AC0E889F9899A
:10053000808185FF15C09FB7F894EE89FF8960839D
:10054000E889F98980818370806480839FBF81E01E
:1005500090E0DF91CF911F910F91FF90EF90089560
:10056000F62E0B8D10E00F5F1F4F0F731127E02E3B
:100570008C8D8E110CC00FB607FCFACFE889F98973
:10058000808185FFF5CFCE010E946702F1CFEB8D10
:10059000EC0FFD2FF11DE35AFF4FF0829FB7F89447
:1005A0000B8FEA89FB8980818062CFCF0F931F93E5
:1005B000CF93DF938C01D0E0C0E0F801EC0FFD1F7A
:1005C0006491662341F083E092E00E948902892BC6
:1005D00011F02196F2CFCE01DF91CF911F910F91B3
:1005E0000895CF93DF93EC01888D8823B9F0AA8911
:1005F000BB89E889F9898C9185FD03C0808186FDDE
:100600000DC00FB607FCF7CF8C9185FFF2CF80812C
:1006100085FFEDCFCE010E946702E9CFDF91CF9138
:10062000089520917401260F3327331F213231059D
:10063000ECF42091F901FC0190E080E0243069F0B5
:1006400082E00895A09174012191AC014C5A5E4F53
:10065000A40FB52FB11D2C930196861798F38091A6
:100660007401680F6093740180E0089581E008953B
:100670001092F90181E08093D8011092D30161E0DA
:1006800082E10E94380161E083E10E943801E9EBD8
:10069000F0E080818E7F808380818D7F808388E4FD
:1006A0008093B80085E48093BC000895CF93DF93D6
:1006B00091E090939B018823B9F0C091B800D0914C
:1006C000BA008091BC008A7B8093BC0060E082E12C
:1006D0000E94380160E083E10E9438010E943803E3
:1006E000D093BA00C093B800DF91CF910895CF9214
:1006F000DF92EF92FF920F931F93CF93DF93D82F48
:10070000C62F613208F098C00E9484016B017C0101
:100710008091F90181116BC081E08093F901809390
:10072000D8019FEF9093D7011092D6019C0F909320
:10073000D5018093D4018091D401DD0FD82BD093C3
:10074000D4018091D301813009F078C01092D30197
:100750000E9484016B017C018091D4018093BB00D5
:100760008091FB019091FC01A091FD01B091FE01EF
:10077000892B8A2B8B2BA1F00E9484010091FB0115
:100780001091FC012091FD013091FE016C197D0951
:100790008E099F09061717072807390708F448C06C
:1007A0008091BC0083FDD8CF85EC8093BC000E9473
:1007B00084016B017C018091F901813009F440C012
:1007C0008091D6018C1710F4C091D601E3EBF1E0D3
:1007D000A9EDB1E080E08C1355C08C2FDF91CF9153
:1007E0001F910F91FF90EF90DF90CF90089580912F
:1007F000FB019091FC01A091FD01B091FE01892BBC
:100800008A2B8B2B09F484CF0E9484010091FB0179
:100810001091FC012091FD013091FE016C197D09C0
:100820008E099F09061717072807390708F070CFA8
:100830008091FA010E945603C0E0CFCF85EEB5CF7C
:100840008091FB019091FC01A091FD01B091FE010E
:10085000892B8A2B8B2B09F4AECF0E948401009147
:10086000FB011091FC012091FD013091FE016C19FA
:100870007D098E099F09061717072807390708F011
:100880009ACFD6CF91919D938F5FA5CF0895E09198
:10089000B2018091B101E81730F4F0E0E752FE4F69
:1008A000808190E008958FEF9FEF08959091B201BD
:1008B0008091B1012FEF3FEF981748F4E92FF0E056
:1008C000E752FE4F208130E09F5F9093B201C90153
:1008D00008958091B1019091B201891B990B0895FF
:1008E000CF92DF92EF92FF920F931F93CF93DF93FC
:1008F0007C01CB018A0120910202222389F0EB01C5
:100900006B01C40ED51ECC15DD0569F06991D701C8
:10091000ED91FC910190F081E02DC7010995F3CF95
:10092000642F0E941103C801DF91CF911F910F9195
:10093000FF90EF90DF90CF900895CF93DF931F92B9
:10094000CDB7DEB76983209102022223F9F020910E
:10095000FF01203258F021E030E0FC013383228394
:1009600090E080E00F90DF91CF9108958091000298
:10097000E82FF0E0EC5CFE4F998190838F5F8093CD
:1009800000028093FF0181E090E0ECCF61E0CE01B6
:1009900001960E941103F7CFCF92DF92EF92FF9260
:1009A0000F931F93CF93DF93D091FF0181E0D1325A
:1009B00008F09CC0C09101020E9484016B017C017F
:1009C0008091F90181116CC082E08093F90181E08E
:1009D0008093D8018FEF8093D7011092D601D093E6
:1009E000D501A4E3B1E0E3EBF1E080E0D8138DC0E2
:1009F0001092D4018091D401CC0FC82BC093D401A4
:100A00008091D301813009F084C01092D3010E94FB
:100A100084016B017C018091D4018093BB008091A3
:100A2000FB019091FC01A091FD01B091FE01892B89
:100A30008A2B8B2BA1F00E9484010091FB01109165
:100A4000FC012091FD013091FE016C197D098E0998
:100A50009F09061717072807390708F442C0809135
:100A6000BC0083FDD8CF85EC8093BC000E9484013C
:100A70006B017C018091F901823009F44CC08091B6
:100A8000D7018F3F09F469C08091D701803209F402
:100A900066C08091D701803309F463C084E026C02A
:100AA0008091FB019091FC01A091FD01B091FE01AC
:100AB000892B8A2B8B2B09F483CF0E948401009110
:100AC000FB011091FC012091FD013091FE016C1998
:100AD0007D098E099F09061717072807390708F0AF
:100AE0006FCF8091FA010E94560385E010920002B8
:100AF0001092FF0110920202DF91CF911F910F918E
:100B0000FF90EF90DF90CF9008959D9191938F5F2C
:100B10006DCF85EEA9CF8091FB019091FC01A09152
:100B2000FD01B091FE01892B8A2B8B2B09F4A2CFFA
:100B30000E9484010091FB011091FC012091FD01B4
:100B40003091FE016C197D098E099F090617170760
:100B50002807390708F08ECFC4CF80E0C7CF82E0E6
:100B6000C5CF83E0C3CF0F931F93CF93DF93082F9D
:100B7000162FCCEAD2E08B810E942E0189819A81C6
:100B8000DC01ED91FC910190F081E02D602F099541
:100B900089819A81DC01ED91FC910190F081E02D39
:100BA000612F099589819A810E94CC048883DF9105
:100BB000CF911F910F910895FF920F931F93CF93A1
:100BC000DF93F82E162F072FCCEAD2E08B810E94FC
:100BD0002E0189819A81DC01ED91FC910190F081D7
:100BE000E02D6F2D099589819A81DC01ED91FC91B1
:100BF0000190F081E02D602F099589819A81DC01B7
:100C0000ED91FC910190F081E02D612F0995898192
:100C10009A810E94CC048883DF91CF911F910F911C
:100C2000FF90089590E080E008950F931F93CF9375
:100C3000DF93182FCCEAD2E08B810E942E018981AC
:100C40009A81DC01ED91FC910190F081E02D612F02
:100C5000099589819A810E94CC04888362E08B8106
:100C60000E9477031092B2018093B10189819A8129
:100C7000DC01ED91FC910284F385E02D099500E003
:100C8000182F89819A81DC01ED91FC910284F38512
:100C9000E02D0995802B912BDF91CF911F910F9122
:100CA00008951F93CF93DF93182FCCEAD2E08B8166
:100CB0000E942E0189819A81DC01ED91FC910190C5
:100CC000F081E02D612F099589819A810E94CC04E1
:100CD000888361E08B810E9477031092B201809338
:100CE000B10189819A81DC01ED91FC910284F38547
:100CF000E02D0995DF91CF911F910895CF93DF9358
:100D0000EC0181E00E94510684FB992790F99883B9
:100D100083FB992790F99A8382FB992790F999830D
:100D200086FB992790F99B83881F8827881F8C83CF
:100D3000DF91CF910895682F616080E00E94B30534
:100D40000E94DB017093B4026093B30283E10E94BE
:100D500051068770B9F48091B0029091B102892B4D
:100D6000A9F30E94DB012091B3023091B402621B0F
:100D7000730B8091B0029091B1028617970730F7FC
:100D800080E0089561E08BE00E94B30560E080E0C0
:100D90000E94B30581E008958F929F92AF92BF9217
:100DA000EF92FF920F931F93CF93DF937C01EB01A0
:100DB00080E50E9451068F5F880F90E099838883B9
:100DC00086E40E945106082F10E00F5F1F4F1D831D
:100DD0000C83A881B0E020E03FE24AE350E00E94AB
:100DE0005A136C507E4F8F4F9F4F38EE832E33E057
:100DF000932EA12CB12CA50194010E942913D80196
:100E00000E9465136C507E4F8F4F9F4FA501940138
:100E10000E9429132A873B874C875D8781E50E94C2
:100E200015068C01112702C0000F111F9A95E2F7D9
:100E30000F5F1F4F1F830E83A881B0E020E03FE2C9
:100E40004AE350E00E945A136C507E4F8F4F9F4FE1
:100E5000A50194010E942913D8010E945A136C50D5
:100E60007E4F8F4F9F4FA50194010E9429132E871B
:100E70003F87488B598B80E70E9451068F5F880F10
:100E800090E09B838A8381E70E9415069C01992745
:100E900002C0880F991F3A95E2F7019699878887D3
:100EA000F7012381222331F02E813F81821B930B96
:100EB00099878887AA81B0E020E03FE24AE350E0CA
:100EC0000E945A136C507E4F8F4F9F4F28EE822EF8
:100ED00023E0922EA12CB12CA50194010E9429138C
:100EE000A885B9850E945A136C507E4F8F4F9F4F33
:100EF000A50194010E9429132A8B3B8B4C8B5D8B9F
:100F0000DF91CF911F910F91FF90EF90BF90AF9025
:100F10009F908F900895FC0101900020E9F7319790
:100F2000AF01481B590BBC0183E092E00C94E9012E
:100F30008F929F92AF92BF920F931F93CF93DF93A5
:100F4000CDB7DEB7A1970FB6F894DEBF0FBECDBF09
:100F500019A2423008F44AE08E010F5D1F4F842E23
:100F6000912CB12CA12CA50194010E942913E62FEC
:100F7000B901CA01EA30F4F4E05DD801EE938D01C5
:100F8000232B242B252B79F790E080E0109719F084
:100F9000CD010E948B07A1960FB6F894DEBF0FBE5D
:100FA000CDBFDF91CF911F910F91BF90AF909F90D8
:100FB0008F900895E95CE1CFCF93DF930E94D60232
:100FC000EC0184E291E00E948B078C0F9D1FDF9162
:100FD000CF91089585ED8093BC008091FB019091A5
:100FE000FC01A091FD01B091FE010796A11DB11D6C
:100FF00023E0B695A795979587952A95D1F72091E7
:10100000BC0024FD03C01092F90108954091FB013A
:101010005091FC016091FD017091FE01452B462B22
:10102000472B69F30097A105B10541F02AE22A9503
:10103000F1F700C00197A109B109E1CF8091FA0150
:101040000C9456031F920F920FB60F9211242F93F8
:101050003F938F939F93AF93BF938091A9019091FA
:10106000AA01A091AB01B091AC013091A80123E09D
:10107000230F2D3758F50196A11DB11D2093A8010E
:101080008093A9019093AA01A093AB01B093AC0106
:101090008091AD019091AE01A091AF01B091B001EE
:1010A0000196A11DB11D8093AD019093AE01A09357
:1010B000AF01B093B001BF91AF919F918F913F91DC
:1010C0002F910F900FBE0F901F90189526E8230FB9
:1010D0000296A11DB11DD2CF1F920F920FB60F9293
:1010E00011242F933F934F935F936F937F938F932D
:1010F0009F93AF93BF93EF93FF9383E092E00E949F
:101100006702FF91EF91BF91AF919F918F917F9176
:101110006F915F914F913F912F910F900FBE0F9064
:101120001F9018951F920F920FB60F9211242F93B4
:101130008F939F93EF93FF93E0911302F09114022A
:101140008081E0911902F0911A0282FD1BC090810A
:1011500080911C028F5F8F7320911D02821741F0D6
:10116000E0911C02F0E0ED5FFD4F958F80931C0233
:10117000FF91EF919F918F912F910F900FBE0F9044
:101180001F9018958081F4CF1F920F920FB60F9287
:1011900011242F933F934F935F936F937F938F937C
:1011A0009F93AF93BF93EF93FF938091B900887F94
:1011B000803609F44AC0F0F5883209F4A7C018F562
:1011C000803109F49BC0B8F4882309F4F9C0883051
:1011D00009F494C0FF91EF91BF91AF919F918F91CE
:1011E0007F916F915F914F913F912F910F900FBE23
:1011F0000F901F901895883109F488C0803251F7FC
:101200008093D70114C0803409F49DC040F480332A
:10121000B9F38833F9F68093D70185ECB0C08035F7
:1012200009F485C0883509F496C0883499F60E947F
:10123000EA07D0CF883909F48CC038F5883729F00F
:1012400050F4883611F0803729F683E08093F90155
:101250001092960157C0883809F47BC0803919F084
:10126000803809F0B7CF80919601803208F071C0C4
:10127000E091960181E08E0F809396018091BB00F2
:10128000F0E0EA58FE4F80833DC0803B39F0E0F447
:10129000803A09F479C0883A09F09CCF84E08093C1
:1012A000F9011092750110927401E0919901F09189
:1012B0009A0109958091740181110FC081E080939A
:1012C00074011092540109C0803C09F4A6CF883CF7
:1012D00009F4A3CF883B09F07DCFE091750181E04F
:1012E0008E0F80937501F0E0EC5AFE4F8081809361
:1012F000BB00909175018091740129C08091D40147
:101300008093BB0085EC8093BC0064CF9091D601A4
:101310008091D501981758F5E091D60181E08E0FA4
:101320008093D601F0E0ED54FE4F8081E9CFE0914B
:10133000D60181E08E0F8093D6018091BB00F0E052
:10134000ED54FE4F80839091D6018091D50198177E
:10135000C8F285E8D8CFE091D60181E08E0F809366
:10136000D6018091BB00F0E0ED54FE4F8083809168
:10137000D80181115CCF81E08093D30184EA80930E
:10138000BC001092F90126CF85EC8093BC0010922E
:10139000F90180919601803230F4E0919601F0E0FD
:1013A000EA58FE4F10826091960170E0E09197013B
:1013B000F091980186E791E00995109296010ACF85
:1013C0001092D70134CFE3E0F2E01382128248EEAC
:1013D00053E060E070E0448355836683778384E064
:1013E00091E09183808385EC90E09587848784ECFD
:1013F00090E09787868780EC90E0918B808B81ECE2
:1014000090E0938B828B82EC90E0958B848B86ECC2
:1014100090E0978B868B118E128E138E148EA0EA1D
:10142000B2E013961C921E92129714964D935D9300
:101430006D937C93179786E191E011969C938E9320
:10144000ECEAF2E0B283A18389E2838315821482FD
:1014500016820895CF93DF93CDB7DEB7A1970FB66D
:10146000F894DEBF0FBECDBF789484B5826084BD92
:1014700084B5816084BD85B5826085BD85B5816098
:1014800085BD80916E00816080936E001092810016
:1014900080918100826080938100809181008160D1
:1014A0008093810080918000816080938000809192
:1014B000B10084608093B1008091B000816080931E
:1014C000B00080917A00846080937A0080917A00E5
:1014D000826080937A0080917A00816080937A00A4
:1014E00080917A00806880937A001092C100E09128
:1014F0001302F091140282E08083E0910F02F091D8
:1015000010021082E0911102F09112028FEC8083A0
:1015100010921B02E0911702F091180286E080837E
:10152000E0911502F0911602808180618083E09144
:101530001502F0911602808188608083E091150287
:10154000F0911602808180688083E0911502F0910D
:10155000160280818F7D80838AE991E00E94DC07FA
:101560008BE791E00E94DC07E0EEF1E02491ECECE7
:10157000F1E08491882399F090E0880F991FFC0195
:10158000E859FF4FA591B491FC01E154FE4F8591BC
:1015900094918FB7F894EC91E22BEC938FBF60E0BD
:1015A00083E00E9438016AE070E080E090E00E94F1
:1015B000A90161E083E00E9438016AE070E080E008
:1015C00090E00E94A9018BE691E00E94DC07109256
:1015D000B2011092B101109200021092FF010E941C
:1015E000380387EE91E090939A018093990188EEF9
:1015F00091E0909398018093970110929B0188EE5F
:1016000093E0A0E0B0E08093FB019093FC01A093F5
:10161000FD01B093FE0181E08093FA0180E591E045
:101620000E94DC0789E20E942E0180EA92E00E947B
:10163000CC04882379F087E391E00E94DC0781E005
:1016400091E00E94DC0768EE73E080E090E00E9489
:10165000A901F9CF84ED90E00E94DC0784EF91E0CE
:101660009093B1028093B00280EC0E9451068E3EAE
:1016700009F086C089E80E945106682F616089E8F8
:101680000E94B30560E088E80E94B30561E080E84D
:101690000E94B30561E08FEF0E94B30560E080E037
:1016A0000E94B30581E90E9451068093B50261E072
:1016B00080E00E94B30560E08FEF0E94B30560E018
:1016C00080E80E94B30580E60E945106682F62619F
:1016D00080E60E94B30560E270E084E40E94DC05CD
:1016E0006FEF81E00E94B30561E080E80E94B305DE
:1016F00061E08FEF0E94B30560E080E00E94B305D7
:1017000066E08FEF0E94B30583E80E945106682FC0
:10171000646083E80E94B30567E08FEF0E94B30521
:1017200061E081E80E94B30561E080E80E94B305B2
:101730006BE684E90E94B30560E083E80E94B3058C
:101740000E94DB017093B4026093B30283E80E94AD
:101750005106811120C08091B0029091B102892B75
:10176000A9F30E94DB012091B3023091B402621B05
:10177000730B8091B0029091B1028617970730F7F2
:101780008BEA90E00E94DC0768EE73E080E090E076
:101790000E94A901F9CF61E083E80E94B30582E9C4
:1017A0000E945106F82EE894F7F8D82EDD1CDD24AF
:1017B000DD1C60E081E80E94B30566E08FEF0E94C7
:1017C000B30583E80E945106682F6B7F83E80E946F
:1017D000B30561E08FEF0E94B30561E080E00E94F5
:1017E000B30560E08FEF0E94B30560E080E80E94DF
:1017F000B3058091AF020E942E018091AD029091BD
:10180000AE02DC01ED91FC910190F081E02D60EBE6
:1018100009958091AD029091AE020E94CC04809314
:10182000AC0266E08091AF020E9477031092B20191
:101830008093B1018E01095E1F4F580127E0E22E0F
:10184000EA94EE2079F08091AD029091AE02DC0135
:10185000ED91FC910284F385E02D0995F5018193CA
:101860005F01EECF61E08FEF0E94B30560E08FE48F
:101870000E94B3056CE28EE40E94B30560E08FEF36
:101880000E94B30564EB86EB0E94B3059CE0E92E51
:10189000D11001C0E12C90E080E0E1E0F0E0482FC1
:1018A00046954695469550E09801240F351FD9017D
:1018B0002C91682F67708E1510F0F91234C0400F0C
:1018C000511FDF0102C0AA0FBB1F6A95E2F7BD01DD
:1018D00060952623DA012C938F5F803301F7809186
:1018E000AF020E942E018091AD029091AE02DC0108
:1018F000ED91FC910190F081E02D60EB099587E07E
:10190000F82E8091AD029091AE02FA94FF20A9F0DA
:10191000F80161918F01DC01ED91FC910190F08162
:10192000E02D0995EECF30E002C0359527956A95F8
:10193000E2F720FFD1CF9F5FCFCF0E94CC048093EE
:10194000AC0261E08FEF0E94B30560E080E00E948E
:10195000B30560E08FEF0E94B30560E089E00E946C
:10196000B30560E080E10E94B30560E081E10E9480
:10197000B30561E084E20E94B3056FEF85E20E9447
:10198000B30560E085E70E94B30561E08FEF0E9438
:10199000B3056CE28EE40E94B30560E088E40E9427
:1019A000B30560E280E30E94B30560E08FEF0E9420
:1019B000B30569E080E30E94B30560E084E50E941E
:1019C000B30564E081E30E94B30563E082E30E9413
:1019D000B30563E880E40E94B30565E286E40E94F3
:1019E000B30560E080E60E94B30560E087E20E94F4
:1019F000B30566E080E50E94B30560E081E50E94E2
:101A0000B30566E982E50E94B30568E086E50E94B9
:101A1000B30560E387E50E94B30560E081E60E94BC
:101A2000B30560E082E60E94B30560E084E60E94B0
:101A3000B30560E085E60E94B30560EA86E60E9491
:101A4000B30561E08FEF0E94B30562E382E20E947A
:101A5000B30564E187E40E94B3056FEF89E40E9457
:101A6000B30560E08AE40E94B30560E08FEF0E9456
:101A7000B3056AE08AE70E94B30560E08BE70E9445
:101A8000B30561E288E70E94B30561E08FEF0E9431
:101A9000B30564E383E20E94B30560E082E40E9440
:101AA000B3056FEF84E40E94B30566E285E40E940B
:101AB000B30565E086E40E94B30560E480E40E941B
:101AC000B30566E08EE00E94B3056AE180E20E9401
:101AD000B30560E483E40E94B30560E08FEF0E94E9
:101AE000B30563E084E30E94B30564E485E30E94E8
:101AF000B30561E08FEF0E94B30564E081E30E94CB
:101B0000B30569E08BE40E94B30565E08CE40E94B4
:101B1000B30564E08DE40E94B30560E08FEF0E949E
:101B2000B30560E084E40E94B30560E285E40E94AE
:101B3000B30568E087E40E94B30568E288E40E9488
:101B4000B30560E087E60E94B30564E080E70E9489
:101B5000B30561E081E70E94B3056EEF82E70E9462
:101B6000B30560E086E70E94B30560E087E70E9466
:101B7000B30561E08FEF0E94B30561E08DE00E9444
:101B8000B30560E08FEF0E94B30561E080E80E943A
:101B9000B30568EF81E00E94B30561E08FEF0E941A
:101BA000B30561E08EE80E94B30561E080E00E9429
:101BB000B30560E08FEF0E94B30560E080E80E940B
:101BC000B30564E08AE00E94B30584E80E945106F0
:101BD000682F6F7E84E80E94B30561E08BE00E946D
:101BE000B305CE014D960E947E06BE016F5F7F4F0A
:101BF000CE014D960E94CC068D8D882309F4F3C04A
:101C00008B859C85AD85BE858C57924FAF4FBF4F5E
:101C10002F8D222309F4ECC04B855C856D857E8574
:101C20004E545D4F6F4F7F4F440F551F661F771FF8
:101C3000840F951FA61FB71F28A1222361F04F858F
:101C4000588969897A894C565D4F6F4F7F4F840F51
:101C5000951FA61FB71F29A1222361F04B895C891C
:101C60006D897E894A5D5D4F6F4F7F4F840F951F51
:101C7000A61FB71F8093B6029093B702A093B80235
:101C8000B093B90268EE81E00E94B305C090B6023D
:101C9000D090B702E090B802F090B902CE014D9614
:101CA0000E947E06BE016F5F7F4FCE014D960E945F
:101CB000CC068D8D882309F4A8C08B859C85AD85C5
:101CC000BE858C57924FAF4FBF4F2F8D222309F403
:101CD000A1C04B855C856D857E854E545D4F6F4FF1
:101CE0007F4F440F551F661F771F840F951FA61F38
:101CF000B71F18A1112361F04F85588969897A8926
:101D00004C565D4F6F4F7F4F840F951FA61FB71F17
:101D100029A1222309F49AC04C015D01E6E28E0E4E
:101D2000E2E09E1EA11CB11CC814D904EA04FB0405
:101D300008F48CC0AB81B0E020E03FE24AE350E021
:101D40000E945A132B013C01F4EF4F0EF1E05F1E8D
:101D5000611C711CA7019601281939094A095B0900
:101D6000A8EEB3E00E945A134B015C01C301B2011B
:101D700020ED37E040E050E00E942913820E931ED0
:101D8000A41EB51EC301B20128EE33E040E050E0CE
:101D90000E942913C501B4010E942913112331F0B7
:101DA0008F819885280F391F411D511D70E060E01B
:101DB0002115310541055105F1F189019A010150C3
:101DC00011092109310970E060E0D901C8018827B3
:101DD000892B8A2B8B2B59F13695279517950795CB
:101DE0006F5F7F4FF2CF86E39BE0A0E0B0E010CFC3
:101DF0002E8D222309F420CF4B855C856D857E8551
:101E00004C565D4F6F4F7F4F13CF86E39BE0A0E0B2
:101E1000B0E05BCF2E8D222309F46BCF4B855C8520
:101E20006D857E854C565D4F6F4F7F4F5ECF762F11
:101E30006627602B712B81E70E94DC05C092B602F9
:101E4000D092B702E092B802F092B90261E081E06C
:101E50000E94B30580E40E949B06882309F490CC7D
:101E600062E081E00E94B30580E00E949B06882327
:101E700009F486CC68EE81E00E94B30561E080E859
:101E80000E94B30561E08FEF0E94B30560E080E03F
:101E90000E94B3056091B50281E90E94B30561E03B
:101EA00080E00E94B30560E08FEF0E94B30560E020
:101EB00080E80E94B30588EF0E94150672E3C72EE2
:101EC000D12CE12CF12C009739F09C01A2E3B0E079
:101ED0000E944B136B017C018091AF020E942E0186
:101EE0008091AD029091AE02DC01ED91FC910190E8
:101EF000F081E02D64E009958091AD029091AE02F1
:101F0000DC01ED91FC910190F081E02D60E00995FC
:101F1000A091AD02B091AE02B70188279927ED914B
:101F2000FC9111970190F081E02DCD010995A091D0
:101F3000AD02B091AE0299278F2D7E2D6D2DED91C2
:101F4000FC9111970190F081E02DCD0109958091D0
:101F5000AD029091AE02DC01ED91FC910190F08117
:101F6000E02D6C2D09958091AD029091AE020E94FA
:101F7000CC048093AC0264E080E00E94B3058CE95D
:101F800090E00E94DC0782E790E00E94DC0705E019
:101F900010E060E0A62E60E0B62E0E94DB01709398
:101FA000B4026093B30283E10E945106877009F086
:101FB00044C08091B0029091B102892BA1F30E949C
:101FC000DB012091B3023091B402621B730B80914C
:101FD000B0029091B1028617970728F781E08093AD
:101FE000B202EE24EA94FE2C8091A70190E0FC015D
:101FF000EE0FFF1FE356FE4FF182E0820196B8011B
:102000000E9415138093A70180919C01853018F4DC
:102010008F5F80939C0120919C01EDE9F1E030E01D
:1020200060E070E0CB01231789F041915191640F7A
:10203000751F811D911D3F5FF6CF8EE10E94150631
:102040007C0161E08BE00E94B305CECF30E050E030
:1020500040E00E94291329013A01B90190E080E093
:102060000E94EC1120E030E040E251E40E944B116C
:102070006B017C0184EB91E00E94D602C301B201A6
:10208000882799274AE00E9498078EEA91E00E94EB
:10209000D602A7019601C701B6010E94101388233A
:1020A00041F187E291E00E948B0789EA91E00E946A
:1020B000D6028091B2021092B202882321F080EA07
:1020C00091E00E94D60284E291E00E948B0762E3D5
:1020D00070E080E090E00E94A901A114B10409F42D
:1020E0005CCF0E945302882309F457CF0E9400005E
:1020F00054CF2FEF3FEF4FE75FE7C701B6010E94D4
:10210000101381110DC02FEF3FEF4FE75FE7C701BD
:10211000B6010E94461118161CF48BE291E0C3CF61
:102120002FEF3FEF4FE75FE4C701B6010E949E1219
:1021300018161CF48FE291E0B6CF2FEF3FEF4FE778
:102140005FECC701B6010E94461187FDF3CF2DEC6D
:102150003CEC4CE45DE3C701B6010E94DA102B01B0
:102160003C010E94BD116B017C010E94EC119B019E
:10217000AC01C301B2010E94D9102B013C014AE01D
:10218000C701B6010E9498076EE283E092E00E94C8
:10219000890220E030E040E251E4C301B2010E9434
:1021A000A3120E94BD1190E080E04AE00E949807CF
:1021B0007CCF5058BB27AA270E94F1100C946412C0
:1021C0000E94561238F00E945D1220F039F49F3FB1
:1021D00019F426F40C9453120EF4E095E7FB0C94DA
:1021E0004D12E92F0E94751258F3BA176207730750
:1021F0008407950720F079F4A6F50C9497120EF455
:10220000E0950B2EBA2FA02D0B01B90190010C0106
:10221000CA01A0011124FF27591B99F0593F50F41E
:10222000503E68F11A16F040A22F232F342F442776
:10223000585FF3CF469537952795A795F04053956E
:10224000C9F77EF41F16BA0B620B730B840BBAF03E
:102250009150A1F0FF0FBB1F661F771F881FC2F7A9
:102260000EC0BA0F621F731F841F48F487957795BD
:102270006795B795F7959E3F08F0B0CF9395880F77
:1022800008F09927EE0F9795879508950E942912D7
:1022900008F481E008950E945F110C9464120E947A
:1022A0005D1258F00E94561240F029F45F3F29F069
:1022B0000C944D1251110C9498120C9453120E94CC
:1022C000751268F39923B1F3552391F3951B550BC0
:1022D000BB27AA2762177307840738F09F5F5F4FF9
:1022E000220F331F441FAA1FA9F335D00E2E3AF038
:1022F000E0E832D091505040E695001CCAF72BD050
:10230000FE2F29D0660F771F881FBB1F26173707A0
:102310004807AB07B0E809F0BB0B802DBF01FF27D2
:1023200093585F4F3AF09E3F510578F00C944D1250
:102330000C9498125F3FE4F3983ED4F3869577951A
:102340006795B795F7959F5FC9F7880F911D96958B
:10235000879597F90895E1E0660F771F881FBB1FE7
:10236000621773078407BA0720F0621B730B840B94
:10237000BA0BEE1F88F7E09508950E947D1288F051
:102380009F5798F0B92F9927B751B0F0E1F0660F39
:10239000771F881F991F1AF0BA95C9F714C0B1307A
:1023A00091F00E949712B1E008950C949712672F54
:1023B000782F8827B85F39F0B93FCCF386957795A9
:1023C0006795B395D9F73EF4909580957095619592
:1023D0007F4F8F4F9F4F0895E89409C097FB3EF4BD
:1023E00090958095709561957F4F8F4F9F4F992362
:1023F000A9F0F92F96E9BB279395F69587957795E0
:102400006795B795F111F8CFFAF4BB0F11F460FF9F
:102410001BC06F5F7F4F8F4F9F4F16C0882311F0F7
:1024200096E911C0772321F09EE8872F762F05C00B
:10243000662371F096E8862F70E060E02AF09A95A6
:10244000660F771F881FDAF7880F9695879597F99B
:102450000895990F0008550FAA0BE0E8FEEF161635
:102460001706E807F907C0F012161306E407F50788
:1024700098F0621B730B840B950B39F40A2661F0FC
:10248000232B242B252B21F408950A2609F4A1409F
:10249000A6958FEF811D811D089597F99F6780E8AC
:1024A00070E060E008959FEF80EC089500240A94A6
:1024B0001616170618060906089500240A9412161F
:1024C0001306140605060895092E0394000C11F452
:1024D000882352F0BB0F40F4BF2B11F460FF04C0FF
:1024E0006F5F7F4F8F4F9F4F089557FD9058440F58
:1024F000551F59F05F3F71F04795880F97FB991F63
:1025000061F09F3F79F0879508951216130614061F
:10251000551FF2CF4695F1DF08C0161617061806AC
:10252000991FF1CF86957105610508940895E89487
:10253000BB2766277727CB0197F908950E942912B8
:1025400008F48FEF08950E94B6120C9464120E9452
:10255000561238F00E945D1220F0952311F00C9471
:102560004D120C94531211240C9498120E9475125F
:1025700070F3959FC1F3950F50E0551F629FF001D6
:10258000729FBB27F00DB11D639FAA27F00DB11DEF
:10259000AA1F649F6627B00DA11D661F829F222778
:1025A000B00DA11D621F739FB00DA11D621F839FFF
:1025B000A00D611D221F749F3327A00D611D231FD5
:1025C000849F600D211D822F762F6A2F11249F5723
:1025D00050409AF0F1F088234AF0EE0FFF1FBB1F26
:1025E000661F771F881F91505040A9F79E3F5105E5
:1025F00080F00C944D120C9498125F3FE4F3983ED7
:10260000D4F3869577956795B795F795E7959F5F8E
:10261000C1F7FE2B880F911D9695879597F9089520
:102620000E942912880B990B089597FB072E16F428
:10263000009407D077FD09D00E946D1307FC05D0E8
:102640003EF4909581959F4F0895709561957F4FC9
:102650000895A1E21A2EAA1BBB1BFD010DC0AA1FE3
:10266000BB1FEE1FFF1FA217B307E407F50720F0FB
:10267000A21BB30BE40BF50B661F771F881F991F76
:102680001A9469F760957095809590959B01AC01BF
:10269000BD01CF010895A29FB001B39FC001A39FC8
:1026A000700D811D1124911DB29F700D811D11248B
:1026B000911D08950E944B13A59F900DB49F900DFE
:1026C000A49F800D911D11240895B7FF0C945A13F7
:1026D0000E945A13821B930B0895AA1BBB1B51E146
:1026E00007C0AA1FBB1FA617B70710F0A61BB70B82
:1026F000881F991F5A95A9F780959095BC01CD0127
:102700000895EE0FFF1F0590F491E02D0994F894C1
:10271000FFCF000000008902E9011602F102470222
:1027200025023902000000009D04700412064604D0
:102730006904560447040D0A006E616E00696E66F6
:06274000006F7666000048
:107E0000112484B714BE81FFF0D085E080938100F7
:107E100082E08093C00088E18093C10086E0809377
:107E2000C20080E18093C4008EE0C9D0259A86E02C
:107E300020E33CEF91E0309385002093840096BBD3
:107E4000B09BFECF1D9AA8958150A9F7CC24DD24C4
:107E500088248394B5E0AB2EA1E19A2EF3E0BF2EE7
:107E6000A2D0813461F49FD0082FAFD0023811F036
:107E7000013811F484E001C083E08DD089C08234E0
:107E800011F484E103C0853419F485E0A6D080C0E4
:107E9000853579F488D0E82EFF2485D0082F10E0AE
:107EA000102F00270E291F29000F111F8ED06801E7
:107EB0006FC0863521F484E090D080E0DECF843638
:107EC00009F040C070D06FD0082F6DD080E0C81688
:107ED00080E7D80618F4F601B7BEE895C0E0D1E017
:107EE00062D089930C17E1F7F0E0CF16F0E7DF06D8
:107EF00018F0F601B7BEE89568D007B600FCFDCFD4
:107F0000A601A0E0B1E02C9130E011968C91119780
:107F100090E0982F8827822B932B1296FA010C0160
:107F200087BEE89511244E5F5F4FF1E0A038BF0790
:107F300051F7F601A7BEE89507B600FCFDCF97BE46
:107F4000E89526C08437B1F42ED02DD0F82E2BD052
:107F50003CD0F601EF2C8F010F5F1F4F84911BD097
:107F6000EA94F801C1F70894C11CD11CFA94CF0C13
:107F7000D11C0EC0853739F428D08EE10CD085E9AC
:107F80000AD08FE07ACF813511F488E018D01DD067
:107F900080E101D065CF982F8091C00085FFFCCF94
:107FA0009093C60008958091C00087FFFCCF809118
:107FB000C00084FD01C0A8958091C6000895E0E648
:107FC000F0E098E1908380830895EDDF803219F02E
:107FD00088E0F5DFFFCF84E1DECF1F93182FE3DFCA
:107FE0001150E9F7F2DF1F91089580E0E8DFEE27F6
:047FF000FF270994CA
:027FFE00040479
:00000001FF
